{
  "_format": "hh-sol-artifact-1",
  "contractName": "bDoodles2",
  "sourceName": "contracts/bDoodles2.sol",
  "abi": [
    {
      "anonymous": false,
      "inputs": [
        {
          "indexed": false,
          "internalType": "address",
          "name": "previousAdmin",
          "type": "address"
        },
        {
          "indexed": false,
          "internalType": "address",
          "name": "newAdmin",
          "type": "address"
        }
      ],
      "name": "AdminChanged",
      "type": "event"
    },
    {
      "anonymous": false,
      "inputs": [
        {
          "indexed": true,
          "internalType": "address",
          "name": "owner",
          "type": "address"
        },
        {
          "indexed": true,
          "internalType": "address",
          "name": "approved",
          "type": "address"
        },
        {
          "indexed": true,
          "internalType": "uint256",
          "name": "tokenId",
          "type": "uint256"
        }
      ],
      "name": "Approval",
      "type": "event"
    },
    {
      "anonymous": false,
      "inputs": [
        {
          "indexed": true,
          "internalType": "address",
          "name": "owner",
          "type": "address"
        },
        {
          "indexed": true,
          "internalType": "address",
          "name": "operator",
          "type": "address"
        },
        {
          "indexed": false,
          "internalType": "bool",
          "name": "approved",
          "type": "bool"
        }
      ],
      "name": "ApprovalForAll",
      "type": "event"
    },
    {
      "anonymous": false,
      "inputs": [
        {
          "indexed": true,
          "internalType": "address",
          "name": "beacon",
          "type": "address"
        }
      ],
      "name": "BeaconUpgraded",
      "type": "event"
    },
    {
      "anonymous": false,
      "inputs": [
        {
          "indexed": false,
          "internalType": "uint8",
          "name": "version",
          "type": "uint8"
        }
      ],
      "name": "Initialized",
      "type": "event"
    },
    {
      "anonymous": false,
      "inputs": [
        {
          "indexed": true,
          "internalType": "address",
          "name": "previousOwner",
          "type": "address"
        },
        {
          "indexed": true,
          "internalType": "address",
          "name": "newOwner",
          "type": "address"
        }
      ],
      "name": "OwnershipTransferred",
      "type": "event"
    },
    {
      "anonymous": false,
      "inputs": [
        {
          "indexed": true,
          "internalType": "address",
          "name": "from",
          "type": "address"
        },
        {
          "indexed": true,
          "internalType": "address",
          "name": "to",
          "type": "address"
        },
        {
          "indexed": true,
          "internalType": "uint256",
          "name": "tokenId",
          "type": "uint256"
        }
      ],
      "name": "Transfer",
      "type": "event"
    },
    {
      "anonymous": false,
      "inputs": [
        {
          "indexed": true,
          "internalType": "address",
          "name": "implementation",
          "type": "address"
        }
      ],
      "name": "Upgraded",
      "type": "event"
    },
    {
      "inputs": [
        {
          "internalType": "address",
          "name": "to",
          "type": "address"
        },
        {
          "internalType": "uint256",
          "name": "tokenId",
          "type": "uint256"
        }
      ],
      "name": "approve",
      "outputs": [],
      "stateMutability": "nonpayable",
      "type": "function"
    },
    {
      "inputs": [
        {
          "internalType": "address",
          "name": "owner",
          "type": "address"
        }
      ],
      "name": "balanceOf",
      "outputs": [
        {
          "internalType": "uint256",
          "name": "",
          "type": "uint256"
        }
      ],
      "stateMutability": "view",
      "type": "function"
    },
    {
      "inputs": [
        {
          "internalType": "uint256",
          "name": "tokenId",
          "type": "uint256"
        }
      ],
      "name": "getApproved",
      "outputs": [
        {
          "internalType": "address",
          "name": "",
          "type": "address"
        }
      ],
      "stateMutability": "view",
      "type": "function"
    },
    {
      "inputs": [],
      "name": "initialize",
      "outputs": [],
      "stateMutability": "nonpayable",
      "type": "function"
    },
    {
      "inputs": [
        {
          "internalType": "address",
          "name": "owner",
          "type": "address"
        },
        {
          "internalType": "address",
          "name": "operator",
          "type": "address"
        }
      ],
      "name": "isApprovedForAll",
      "outputs": [
        {
          "internalType": "bool",
          "name": "",
          "type": "bool"
        }
      ],
      "stateMutability": "view",
      "type": "function"
    },
    {
      "inputs": [],
      "name": "name",
      "outputs": [
        {
          "internalType": "string",
          "name": "",
          "type": "string"
        }
      ],
      "stateMutability": "view",
      "type": "function"
    },
    {
      "inputs": [],
      "name": "owner",
      "outputs": [
        {
          "internalType": "address",
          "name": "",
          "type": "address"
        }
      ],
      "stateMutability": "view",
      "type": "function"
    },
    {
      "inputs": [
        {
          "internalType": "uint256",
          "name": "tokenId",
          "type": "uint256"
        }
      ],
      "name": "ownerOf",
      "outputs": [
        {
          "internalType": "address",
          "name": "",
          "type": "address"
        }
      ],
      "stateMutability": "view",
      "type": "function"
    },
    {
      "inputs": [],
      "name": "proxiableUUID",
      "outputs": [
        {
          "internalType": "bytes32",
          "name": "",
          "type": "bytes32"
        }
      ],
      "stateMutability": "view",
      "type": "function"
    },
    {
      "inputs": [],
      "name": "renounceOwnership",
      "outputs": [],
      "stateMutability": "nonpayable",
      "type": "function"
    },
    {
      "inputs": [
        {
          "internalType": "address",
          "name": "from",
          "type": "address"
        },
        {
          "internalType": "address",
          "name": "to",
          "type": "address"
        },
        {
          "internalType": "uint256",
          "name": "tokenId",
          "type": "uint256"
        }
      ],
      "name": "safeTransferFrom",
      "outputs": [],
      "stateMutability": "nonpayable",
      "type": "function"
    },
    {
      "inputs": [
        {
          "internalType": "address",
          "name": "from",
          "type": "address"
        },
        {
          "internalType": "address",
          "name": "to",
          "type": "address"
        },
        {
          "internalType": "uint256",
          "name": "tokenId",
          "type": "uint256"
        },
        {
          "internalType": "bytes",
          "name": "_data",
          "type": "bytes"
        }
      ],
      "name": "safeTransferFrom",
      "outputs": [],
      "stateMutability": "nonpayable",
      "type": "function"
    },
    {
      "inputs": [
        {
          "internalType": "address",
          "name": "operator",
          "type": "address"
        },
        {
          "internalType": "bool",
          "name": "approved",
          "type": "bool"
        }
      ],
      "name": "setApprovalForAll",
      "outputs": [],
      "stateMutability": "nonpayable",
      "type": "function"
    },
    {
      "inputs": [
        {
          "internalType": "bytes4",
          "name": "interfaceId",
          "type": "bytes4"
        }
      ],
      "name": "supportsInterface",
      "outputs": [
        {
          "internalType": "bool",
          "name": "",
          "type": "bool"
        }
      ],
      "stateMutability": "view",
      "type": "function"
    },
    {
      "inputs": [],
      "name": "symbol",
      "outputs": [
        {
          "internalType": "string",
          "name": "",
          "type": "string"
        }
      ],
      "stateMutability": "view",
      "type": "function"
    },
    {
      "inputs": [],
      "name": "test",
      "outputs": [
        {
          "internalType": "string",
          "name": "",
          "type": "string"
        }
      ],
      "stateMutability": "pure",
      "type": "function"
    },
    {
      "inputs": [
        {
          "internalType": "uint256",
          "name": "tokenId",
          "type": "uint256"
        }
      ],
      "name": "tokenURI",
      "outputs": [
        {
          "internalType": "string",
          "name": "",
          "type": "string"
        }
      ],
      "stateMutability": "view",
      "type": "function"
    },
    {
      "inputs": [
        {
          "internalType": "address",
          "name": "from",
          "type": "address"
        },
        {
          "internalType": "address",
          "name": "to",
          "type": "address"
        },
        {
          "internalType": "uint256",
          "name": "tokenId",
          "type": "uint256"
        }
      ],
      "name": "transferFrom",
      "outputs": [],
      "stateMutability": "nonpayable",
      "type": "function"
    },
    {
      "inputs": [
        {
          "internalType": "address",
          "name": "newOwner",
          "type": "address"
        }
      ],
      "name": "transferOwnership",
      "outputs": [],
      "stateMutability": "nonpayable",
      "type": "function"
    },
    {
      "inputs": [
        {
          "internalType": "address",
          "name": "newImplementation",
          "type": "address"
        }
      ],
      "name": "upgradeTo",
      "outputs": [],
      "stateMutability": "nonpayable",
      "type": "function"
    },
    {
      "inputs": [
        {
          "internalType": "address",
          "name": "newImplementation",
          "type": "address"
        },
        {
          "internalType": "bytes",
          "name": "data",
          "type": "bytes"
        }
      ],
      "name": "upgradeToAndCall",
      "outputs": [],
      "stateMutability": "payable",
      "type": "function"
    }
  ],
  "bytecode": "0x60a06040523073ffffffffffffffffffffffffffffffffffffffff1660809073ffffffffffffffffffffffffffffffffffffffff1660601b81525034801561004657600080fd5b5060805160601c613fd061008160003960008181610850015281816108df01528181610a1f01528181610aae0152610b5e0152613fd06000f3fe60806040526004361061012a5760003560e01c806370a08231116100ab578063a22cb4651161006f578063a22cb465146103bd578063b88d4fde146103e6578063c87b56dd1461040f578063e985e9c51461044c578063f2fde38b14610489578063f8a8fd6d146104b25761012a565b806370a08231146102fc578063715018a6146103395780638129fc1c146103505780638da5cb5b1461036757806395d89b41146103925761012a565b80633659cfe6116100f25780633659cfe61461022657806342842e0e1461024f5780634f1ef2861461027857806352d1902d146102945780636352211e146102bf5761012a565b806301ffc9a71461012f57806306fdde031461016c578063081812fc14610197578063095ea7b3146101d457806323b872dd146101fd575b600080fd5b34801561013b57600080fd5b5061015660048036038101906101519190612aa4565b6104dd565b604051610163919061304b565b60405180910390f35b34801561017857600080fd5b506101816105bf565b60405161018e919061309c565b60405180910390f35b3480156101a357600080fd5b506101be60048036038101906101b99190612af6565b610651565b6040516101cb9190612fe4565b60405180910390f35b3480156101e057600080fd5b506101fb60048036038101906101f69190612a3f565b6106d6565b005b34801561020957600080fd5b50610224600480360381019061021f91906128e5565b6107ee565b005b34801561023257600080fd5b5061024d60048036038101906102489190612880565b61084e565b005b34801561025b57600080fd5b50610276600480360381019061027191906128e5565b6109fd565b005b610292600480360381019061028d91906129eb565b610a1d565b005b3480156102a057600080fd5b506102a9610b5a565b6040516102b69190613066565b60405180910390f35b3480156102cb57600080fd5b506102e660048036038101906102e19190612af6565b610c13565b6040516102f39190612fe4565b60405180910390f35b34801561030857600080fd5b50610323600480360381019061031e9190612880565b610cc5565b60405161033091906133de565b60405180910390f35b34801561034557600080fd5b5061034e610d7d565b005b34801561035c57600080fd5b50610365610e05565b005b34801561037357600080fd5b5061037c610f18565b6040516103899190612fe4565b60405180910390f35b34801561039e57600080fd5b506103a7610f42565b6040516103b4919061309c565b60405180910390f35b3480156103c957600080fd5b506103e460048036038101906103df91906129af565b610fd4565b005b3480156103f257600080fd5b5061040d60048036038101906104089190612934565b610fea565b005b34801561041b57600080fd5b5061043660048036038101906104319190612af6565b61104c565b604051610443919061309c565b60405180910390f35b34801561045857600080fd5b50610473600480360381019061046e91906128a9565b6110f3565b604051610480919061304b565b60405180910390f35b34801561049557600080fd5b506104b060048036038101906104ab9190612880565b611187565b005b3480156104be57600080fd5b506104c761127f565b6040516104d4919061309c565b60405180910390f35b60007f80ac58cd000000000000000000000000000000000000000000000000000000007bffffffffffffffffffffffffffffffffffffffffffffffffffffffff1916827bffffffffffffffffffffffffffffffffffffffffffffffffffffffff191614806105a857507f5b5e139f000000000000000000000000000000000000000000000000000000007bffffffffffffffffffffffffffffffffffffffffffffffffffffffff1916827bffffffffffffffffffffffffffffffffffffffffffffffffffffffff1916145b806105b857506105b7826112bc565b5b9050919050565b6060606580546105ce90613637565b80601f01602080910402602001604051908101604052809291908181526020018280546105fa90613637565b80156106475780601f1061061c57610100808354040283529160200191610647565b820191906000526020600020905b81548152906001019060200180831161062a57829003601f168201915b5050505050905090565b600061065c82611326565b61069b576040517f08c379a0000000000000000000000000000000000000000000000000000000008152600401610692906132de565b60405180910390fd5b6069600083815260200190815260200160002060009054906101000a900473ffffffffffffffffffffffffffffffffffffffff169050919050565b60006106e182610c13565b90508073ffffffffffffffffffffffffffffffffffffffff168373ffffffffffffffffffffffffffffffffffffffff161415610752576040517f08c379a00000000000000000000000000000000000000000000000000000000081526004016107499061335e565b60405180910390fd5b8073ffffffffffffffffffffffffffffffffffffffff16610771611392565b73ffffffffffffffffffffffffffffffffffffffff1614806107a0575061079f8161079a611392565b6110f3565b5b6107df576040517f08c379a00000000000000000000000000000000000000000000000000000000081526004016107d6906131fe565b60405180910390fd5b6107e9838361139a565b505050565b6107ff6107f9611392565b82611453565b61083e576040517f08c379a00000000000000000000000000000000000000000000000000000000081526004016108359061339e565b60405180910390fd5b610849838383611531565b505050565b7f000000000000000000000000000000000000000000000000000000000000000073ffffffffffffffffffffffffffffffffffffffff163073ffffffffffffffffffffffffffffffffffffffff1614156108dd576040517f08c379a00000000000000000000000000000000000000000000000000000000081526004016108d49061313e565b60405180910390fd5b7f000000000000000000000000000000000000000000000000000000000000000073ffffffffffffffffffffffffffffffffffffffff1661091c611798565b73ffffffffffffffffffffffffffffffffffffffff1614610972576040517f08c379a00000000000000000000000000000000000000000000000000000000081526004016109699061319e565b60405180910390fd5b61097b816117ef565b6109fa81600067ffffffffffffffff8111156109c0577f4e487b7100000000000000000000000000000000000000000000000000000000600052604160045260246000fd5b6040519080825280601f01601f1916602001820160405280156109f25781602001600182028036833780820191505090505b50600061186e565b50565b610a1883838360405180602001604052806000815250610fea565b505050565b7f000000000000000000000000000000000000000000000000000000000000000073ffffffffffffffffffffffffffffffffffffffff163073ffffffffffffffffffffffffffffffffffffffff161415610aac576040517f08c379a0000000000000000000000000000000000000000000000000000000008152600401610aa39061313e565b60405180910390fd5b7f000000000000000000000000000000000000000000000000000000000000000073ffffffffffffffffffffffffffffffffffffffff16610aeb611798565b73ffffffffffffffffffffffffffffffffffffffff1614610b41576040517f08c379a0000000000000000000000000000000000000000000000000000000008152600401610b389061319e565b60405180910390fd5b610b4a826117ef565b610b568282600161186e565b5050565b60007f000000000000000000000000000000000000000000000000000000000000000073ffffffffffffffffffffffffffffffffffffffff163073ffffffffffffffffffffffffffffffffffffffff1614610bea576040517f08c379a0000000000000000000000000000000000000000000000000000000008152600401610be1906131de565b60405180910390fd5b7f360894a13ba1a3210667c828492db98dca3e2076cc3735a920a3ca505d382bbc60001b905090565b6000806067600084815260200190815260200160002060009054906101000a900473ffffffffffffffffffffffffffffffffffffffff169050600073ffffffffffffffffffffffffffffffffffffffff168173ffffffffffffffffffffffffffffffffffffffff161415610cbc576040517f08c379a0000000000000000000000000000000000000000000000000000000008152600401610cb39061323e565b60405180910390fd5b80915050919050565b60008073ffffffffffffffffffffffffffffffffffffffff168273ffffffffffffffffffffffffffffffffffffffff161415610d36576040517f08c379a0000000000000000000000000000000000000000000000000000000008152600401610d2d9061321e565b60405180910390fd5b606860008373ffffffffffffffffffffffffffffffffffffffff1673ffffffffffffffffffffffffffffffffffffffff168152602001908152602001600020549050919050565b610d85611392565b73ffffffffffffffffffffffffffffffffffffffff16610da3610f18565b73ffffffffffffffffffffffffffffffffffffffff1614610df9576040517f08c379a0000000000000000000000000000000000000000000000000000000008152600401610df09061331e565b60405180910390fd5b610e0360006119eb565b565b6000610e116001611ab1565b90508015610e35576001600060016101000a81548160ff0219169083151502179055505b610ea96040518060400160405280600881526020017f62446f6f646c65730000000000000000000000000000000000000000000000008152506040518060400160405280600381526020017f42444f0000000000000000000000000000000000000000000000000000000000815250611ba1565b610eb1611bfe565b610ebc336001611c57565b8015610f155760008060016101000a81548160ff0219169083151502179055507f7f26b83ff96e1f2b6a682f133852f6798a09c465da95921460cefb38474024986001604051610f0c9190613081565b60405180910390a15b50565b600060fb60009054906101000a900473ffffffffffffffffffffffffffffffffffffffff16905090565b606060668054610f5190613637565b80601f0160208091040260200160405190810160405280929190818152602001828054610f7d90613637565b8015610fca5780601f10610f9f57610100808354040283529160200191610fca565b820191906000526020600020905b815481529060010190602001808311610fad57829003601f168201915b5050505050905090565b610fe6610fdf611392565b8383611e31565b5050565b610ffb610ff5611392565b83611453565b61103a576040517f08c379a00000000000000000000000000000000000000000000000000000000081526004016110319061339e565b60405180910390fd5b61104684848484611f9e565b50505050565b606061105782611326565b611096576040517f08c379a000000000000000000000000000000000000000000000000000000000815260040161108d9061333e565b60405180910390fd5b60006110a0611ffa565b905060008151116110c057604051806020016040528060008152506110eb565b806110ca84612011565b6040516020016110db929190612fc0565b6040516020818303038152906040525b915050919050565b6000606a60008473ffffffffffffffffffffffffffffffffffffffff1673ffffffffffffffffffffffffffffffffffffffff16815260200190815260200160002060008373ffffffffffffffffffffffffffffffffffffffff1673ffffffffffffffffffffffffffffffffffffffff16815260200190815260200160002060009054906101000a900460ff16905092915050565b61118f611392565b73ffffffffffffffffffffffffffffffffffffffff166111ad610f18565b73ffffffffffffffffffffffffffffffffffffffff1614611203576040517f08c379a00000000000000000000000000000000000000000000000000000000081526004016111fa9061331e565b60405180910390fd5b600073ffffffffffffffffffffffffffffffffffffffff168173ffffffffffffffffffffffffffffffffffffffff161415611273576040517f08c379a000000000000000000000000000000000000000000000000000000000815260040161126a906130de565b60405180910390fd5b61127c816119eb565b50565b60606040518060400160405280600881526020017f5570677261646564000000000000000000000000000000000000000000000000815250905090565b60007f01ffc9a7000000000000000000000000000000000000000000000000000000007bffffffffffffffffffffffffffffffffffffffffffffffffffffffff1916827bffffffffffffffffffffffffffffffffffffffffffffffffffffffff1916149050919050565b60008073ffffffffffffffffffffffffffffffffffffffff166067600084815260200190815260200160002060009054906101000a900473ffffffffffffffffffffffffffffffffffffffff1673ffffffffffffffffffffffffffffffffffffffff1614159050919050565b600033905090565b816069600083815260200190815260200160002060006101000a81548173ffffffffffffffffffffffffffffffffffffffff021916908373ffffffffffffffffffffffffffffffffffffffff160217905550808273ffffffffffffffffffffffffffffffffffffffff1661140d83610c13565b73ffffffffffffffffffffffffffffffffffffffff167f8c5be1e5ebec7d5bd14f71427d1e84f3dd0314c0f7b2291e5b200ac8c7c3b92560405160405180910390a45050565b600061145e82611326565b61149d576040517f08c379a0000000000000000000000000000000000000000000000000000000008152600401611494906131be565b60405180910390fd5b60006114a883610c13565b90508073ffffffffffffffffffffffffffffffffffffffff168473ffffffffffffffffffffffffffffffffffffffff1614806114ea57506114e981856110f3565b5b8061152857508373ffffffffffffffffffffffffffffffffffffffff1661151084610651565b73ffffffffffffffffffffffffffffffffffffffff16145b91505092915050565b8273ffffffffffffffffffffffffffffffffffffffff1661155182610c13565b73ffffffffffffffffffffffffffffffffffffffff16146115a7576040517f08c379a000000000000000000000000000000000000000000000000000000000815260040161159e906130fe565b60405180910390fd5b600073ffffffffffffffffffffffffffffffffffffffff168273ffffffffffffffffffffffffffffffffffffffff161415611617576040517f08c379a000000000000000000000000000000000000000000000000000000000815260040161160e9061315e565b60405180910390fd5b6116228383836121be565b61162d60008261139a565b6001606860008573ffffffffffffffffffffffffffffffffffffffff1673ffffffffffffffffffffffffffffffffffffffff168152602001908152602001600020600082825461167d9190613524565b925050819055506001606860008473ffffffffffffffffffffffffffffffffffffffff1673ffffffffffffffffffffffffffffffffffffffff16815260200190815260200160002060008282546116d4919061349d565b92505081905550816067600083815260200190815260200160002060006101000a81548173ffffffffffffffffffffffffffffffffffffffff021916908373ffffffffffffffffffffffffffffffffffffffff160217905550808273ffffffffffffffffffffffffffffffffffffffff168473ffffffffffffffffffffffffffffffffffffffff167fddf252ad1be2c89b69c2b068fc378daa952ba7f163c4a11628f55a4df523b3ef60405160405180910390a46117938383836121c3565b505050565b60006117c67f360894a13ba1a3210667c828492db98dca3e2076cc3735a920a3ca505d382bbc60001b6121c8565b60000160009054906101000a900473ffffffffffffffffffffffffffffffffffffffff16905090565b6117f7611392565b73ffffffffffffffffffffffffffffffffffffffff16611815610f18565b73ffffffffffffffffffffffffffffffffffffffff161461186b576040517f08c379a00000000000000000000000000000000000000000000000000000000081526004016118629061331e565b60405180910390fd5b50565b61189a7f4910fdfa16fed3260ed0e7147f7cc6da11a60208b5b9406d12a635614ffd914360001b6121d2565b60000160009054906101000a900460ff16156118be576118b9836121dc565b6119e6565b8273ffffffffffffffffffffffffffffffffffffffff166352d1902d6040518163ffffffff1660e01b815260040160206040518083038186803b15801561190457600080fd5b505afa92505050801561193557506040513d601f19601f820116820180604052508101906119329190612a7b565b60015b611974576040517f08c379a000000000000000000000000000000000000000000000000000000000815260040161196b906132be565b60405180910390fd5b7f360894a13ba1a3210667c828492db98dca3e2076cc3735a920a3ca505d382bbc60001b81146119d9576040517f08c379a00000000000000000000000000000000000000000000000000000000081526004016119d09061325e565b60405180910390fd5b506119e5838383612295565b5b505050565b600060fb60009054906101000a900473ffffffffffffffffffffffffffffffffffffffff1690508160fb60006101000a81548173ffffffffffffffffffffffffffffffffffffffff021916908373ffffffffffffffffffffffffffffffffffffffff1602179055508173ffffffffffffffffffffffffffffffffffffffff168173ffffffffffffffffffffffffffffffffffffffff167f8be0079c531659141344cd1fd0a4f28419497f9722a3daafe3b4186f6b6457e060405160405180910390a35050565b60008060019054906101000a900460ff1615611b285760018260ff16148015611ae05750611ade306122c1565b155b611b1f576040517f08c379a0000000000000000000000000000000000000000000000000000000008152600401611b169061327e565b60405180910390fd5b60009050611b9c565b8160ff1660008054906101000a900460ff1660ff1610611b7d576040517f08c379a0000000000000000000000000000000000000000000000000000000008152600401611b749061327e565b60405180910390fd5b816000806101000a81548160ff021916908360ff160217905550600190505b919050565b600060019054906101000a900460ff16611bf0576040517f08c379a0000000000000000000000000000000000000000000000000000000008152600401611be7906133be565b60405180910390fd5b611bfa82826122e4565b5050565b600060019054906101000a900460ff16611c4d576040517f08c379a0000000000000000000000000000000000000000000000000000000008152600401611c44906133be565b60405180910390fd5b611c55612365565b565b600073ffffffffffffffffffffffffffffffffffffffff168273ffffffffffffffffffffffffffffffffffffffff161415611cc7576040517f08c379a0000000000000000000000000000000000000000000000000000000008152600401611cbe9061329e565b60405180910390fd5b611cd081611326565b15611d10576040517f08c379a0000000000000000000000000000000000000000000000000000000008152600401611d079061311e565b60405180910390fd5b611d1c600083836121be565b6001606860008473ffffffffffffffffffffffffffffffffffffffff1673ffffffffffffffffffffffffffffffffffffffff1681526020019081526020016000206000828254611d6c919061349d565b92505081905550816067600083815260200190815260200160002060006101000a81548173ffffffffffffffffffffffffffffffffffffffff021916908373ffffffffffffffffffffffffffffffffffffffff160217905550808273ffffffffffffffffffffffffffffffffffffffff16600073ffffffffffffffffffffffffffffffffffffffff167fddf252ad1be2c89b69c2b068fc378daa952ba7f163c4a11628f55a4df523b3ef60405160405180910390a4611e2d600083836121c3565b5050565b8173ffffffffffffffffffffffffffffffffffffffff168373ffffffffffffffffffffffffffffffffffffffff161415611ea0576040517f08c379a0000000000000000000000000000000000000000000000000000000008152600401611e979061317e565b60405180910390fd5b80606a60008573ffffffffffffffffffffffffffffffffffffffff1673ffffffffffffffffffffffffffffffffffffffff16815260200190815260200160002060008473ffffffffffffffffffffffffffffffffffffffff1673ffffffffffffffffffffffffffffffffffffffff16815260200190815260200160002060006101000a81548160ff0219169083151502179055508173ffffffffffffffffffffffffffffffffffffffff168373ffffffffffffffffffffffffffffffffffffffff167f17307eab39ab6107e8899845ad3d59bd9653f200f220920489ca2b5937696c3183604051611f91919061304b565b60405180910390a3505050565b611fa9848484611531565b611fb5848484846123c6565b611ff4576040517f08c379a0000000000000000000000000000000000000000000000000000000008152600401611feb906130be565b60405180910390fd5b50505050565b606060405180602001604052806000815250905090565b60606000821415612059576040518060400160405280600181526020017f300000000000000000000000000000000000000000000000000000000000000081525090506121b9565b600082905060005b6000821461208b5780806120749061369a565b915050600a8261208491906134f3565b9150612061565b60008167ffffffffffffffff8111156120cd577f4e487b7100000000000000000000000000000000000000000000000000000000600052604160045260246000fd5b6040519080825280601f01601f1916602001820160405280156120ff5781602001600182028036833780820191505090505b5090505b600085146121b2576001826121189190613524565b9150600a8561212791906136e3565b6030612133919061349d565b60f81b81838151811061216f577f4e487b7100000000000000000000000000000000000000000000000000000000600052603260045260246000fd5b60200101907effffffffffffffffffffffffffffffffffffffffffffffffffffffffffffff1916908160001a905350600a856121ab91906134f3565b9450612103565b8093505050505b919050565b505050565b505050565b6000819050919050565b6000819050919050565b6121e5816122c1565b612224576040517f08c379a000000000000000000000000000000000000000000000000000000000815260040161221b906132fe565b60405180910390fd5b806122517f360894a13ba1a3210667c828492db98dca3e2076cc3735a920a3ca505d382bbc60001b6121c8565b60000160006101000a81548173ffffffffffffffffffffffffffffffffffffffff021916908373ffffffffffffffffffffffffffffffffffffffff16021790555050565b61229e8361255d565b6000825111806122ab5750805b156122bc576122ba83836125ac565b505b505050565b6000808273ffffffffffffffffffffffffffffffffffffffff163b119050919050565b600060019054906101000a900460ff16612333576040517f08c379a000000000000000000000000000000000000000000000000000000000815260040161232a906133be565b60405180910390fd5b81606590805190602001906123499291906126f7565b5080606690805190602001906123609291906126f7565b505050565b600060019054906101000a900460ff166123b4576040517f08c379a00000000000000000000000000000000000000000000000000000000081526004016123ab906133be565b60405180910390fd5b6123c46123bf611392565b6119eb565b565b60006123e78473ffffffffffffffffffffffffffffffffffffffff166122c1565b15612550578373ffffffffffffffffffffffffffffffffffffffff1663150b7a02612410611392565b8786866040518563ffffffff1660e01b81526004016124329493929190612fff565b602060405180830381600087803b15801561244c57600080fd5b505af192505050801561247d57506040513d601f19601f8201168201806040525081019061247a9190612acd565b60015b612500573d80600081146124ad576040519150601f19603f3d011682016040523d82523d6000602084013e6124b2565b606091505b506000815114156124f8576040517f08c379a00000000000000000000000000000000000000000000000000000000081526004016124ef906130be565b60405180910390fd5b805181602001fd5b63150b7a0260e01b7bffffffffffffffffffffffffffffffffffffffffffffffffffffffff1916817bffffffffffffffffffffffffffffffffffffffffffffffffffffffff191614915050612555565b600190505b949350505050565b612566816121dc565b8073ffffffffffffffffffffffffffffffffffffffff167fbc7cd75a20ee27fd9adebab32041f755214dbc6bffa90cc0225b39da2e5c2d3b60405160405180910390a250565b60606125b7836122c1565b6125f6576040517f08c379a00000000000000000000000000000000000000000000000000000000081526004016125ed9061337e565b60405180910390fd5b6000808473ffffffffffffffffffffffffffffffffffffffff168460405161261e9190612fa9565b600060405180830381855af49150503d8060008114612659576040519150601f19603f3d011682016040523d82523d6000602084013e61265e565b606091505b50915091506126868282604051806060016040528060278152602001613f7460279139612690565b9250505092915050565b606083156126a0578290506126f0565b6000835111156126b35782518084602001fd5b816040517f08c379a00000000000000000000000000000000000000000000000000000000081526004016126e7919061309c565b60405180910390fd5b9392505050565b82805461270390613637565b90600052602060002090601f016020900481019282612725576000855561276c565b82601f1061273e57805160ff191683800117855561276c565b8280016001018555821561276c579182015b8281111561276b578251825591602001919060010190612750565b5b509050612779919061277d565b5090565b5b8082111561279657600081600090555060010161277e565b5090565b60006127ad6127a88461341e565b6133f9565b9050828152602081018484840111156127c557600080fd5b6127d08482856135f5565b509392505050565b6000813590506127e781613f00565b92915050565b6000813590506127fc81613f17565b92915050565b60008151905061281181613f2e565b92915050565b60008135905061282681613f45565b92915050565b60008151905061283b81613f45565b92915050565b600082601f83011261285257600080fd5b813561286284826020860161279a565b91505092915050565b60008135905061287a81613f5c565b92915050565b60006020828403121561289257600080fd5b60006128a0848285016127d8565b91505092915050565b600080604083850312156128bc57600080fd5b60006128ca858286016127d8565b92505060206128db858286016127d8565b9150509250929050565b6000806000606084860312156128fa57600080fd5b6000612908868287016127d8565b9350506020612919868287016127d8565b925050604061292a8682870161286b565b9150509250925092565b6000806000806080858703121561294a57600080fd5b6000612958878288016127d8565b9450506020612969878288016127d8565b935050604061297a8782880161286b565b925050606085013567ffffffffffffffff81111561299757600080fd5b6129a387828801612841565b91505092959194509250565b600080604083850312156129c257600080fd5b60006129d0858286016127d8565b92505060206129e1858286016127ed565b9150509250929050565b600080604083850312156129fe57600080fd5b6000612a0c858286016127d8565b925050602083013567ffffffffffffffff811115612a2957600080fd5b612a3585828601612841565b9150509250929050565b60008060408385031215612a5257600080fd5b6000612a60858286016127d8565b9250506020612a718582860161286b565b9150509250929050565b600060208284031215612a8d57600080fd5b6000612a9b84828501612802565b91505092915050565b600060208284031215612ab657600080fd5b6000612ac484828501612817565b91505092915050565b600060208284031215612adf57600080fd5b6000612aed8482850161282c565b91505092915050565b600060208284031215612b0857600080fd5b6000612b168482850161286b565b91505092915050565b612b2881613558565b82525050565b612b378161356a565b82525050565b612b4681613576565b82525050565b6000612b578261344f565b612b618185613465565b9350612b71818560208601613604565b612b7a816137d0565b840191505092915050565b6000612b908261344f565b612b9a8185613476565b9350612baa818560208601613604565b80840191505092915050565b612bbf816135e3565b82525050565b6000612bd08261345a565b612bda8185613481565b9350612bea818560208601613604565b612bf3816137d0565b840191505092915050565b6000612c098261345a565b612c138185613492565b9350612c23818560208601613604565b80840191505092915050565b6000612c3c603283613481565b9150612c47826137e1565b604082019050919050565b6000612c5f602683613481565b9150612c6a82613830565b604082019050919050565b6000612c82602583613481565b9150612c8d8261387f565b604082019050919050565b6000612ca5601c83613481565b9150612cb0826138ce565b602082019050919050565b6000612cc8602c83613481565b9150612cd3826138f7565b604082019050919050565b6000612ceb602483613481565b9150612cf682613946565b604082019050919050565b6000612d0e601983613481565b9150612d1982613995565b602082019050919050565b6000612d31602c83613481565b9150612d3c826139be565b604082019050919050565b6000612d54602c83613481565b9150612d5f82613a0d565b604082019050919050565b6000612d77603883613481565b9150612d8282613a5c565b604082019050919050565b6000612d9a603883613481565b9150612da582613aab565b604082019050919050565b6000612dbd602a83613481565b9150612dc882613afa565b604082019050919050565b6000612de0602983613481565b9150612deb82613b49565b604082019050919050565b6000612e03602983613481565b9150612e0e82613b98565b604082019050919050565b6000612e26602e83613481565b9150612e3182613be7565b604082019050919050565b6000612e49602083613481565b9150612e5482613c36565b602082019050919050565b6000612e6c602e83613481565b9150612e7782613c5f565b604082019050919050565b6000612e8f602c83613481565b9150612e9a82613cae565b604082019050919050565b6000612eb2602d83613481565b9150612ebd82613cfd565b604082019050919050565b6000612ed5602083613481565b9150612ee082613d4c565b602082019050919050565b6000612ef8602f83613481565b9150612f0382613d75565b604082019050919050565b6000612f1b602183613481565b9150612f2682613dc4565b604082019050919050565b6000612f3e602683613481565b9150612f4982613e13565b604082019050919050565b6000612f61603183613481565b9150612f6c82613e62565b604082019050919050565b6000612f84602b83613481565b9150612f8f82613eb1565b604082019050919050565b612fa3816135cc565b82525050565b6000612fb58284612b85565b915081905092915050565b6000612fcc8285612bfe565b9150612fd88284612bfe565b91508190509392505050565b6000602082019050612ff96000830184612b1f565b92915050565b60006080820190506130146000830187612b1f565b6130216020830186612b1f565b61302e6040830185612f9a565b81810360608301526130408184612b4c565b905095945050505050565b60006020820190506130606000830184612b2e565b92915050565b600060208201905061307b6000830184612b3d565b92915050565b60006020820190506130966000830184612bb6565b92915050565b600060208201905081810360008301526130b68184612bc5565b905092915050565b600060208201905081810360008301526130d781612c2f565b9050919050565b600060208201905081810360008301526130f781612c52565b9050919050565b6000602082019050818103600083015261311781612c75565b9050919050565b6000602082019050818103600083015261313781612c98565b9050919050565b6000602082019050818103600083015261315781612cbb565b9050919050565b6000602082019050818103600083015261317781612cde565b9050919050565b6000602082019050818103600083015261319781612d01565b9050919050565b600060208201905081810360008301526131b781612d24565b9050919050565b600060208201905081810360008301526131d781612d47565b9050919050565b600060208201905081810360008301526131f781612d6a565b9050919050565b6000602082019050818103600083015261321781612d8d565b9050919050565b6000602082019050818103600083015261323781612db0565b9050919050565b6000602082019050818103600083015261325781612dd3565b9050919050565b6000602082019050818103600083015261327781612df6565b9050919050565b6000602082019050818103600083015261329781612e19565b9050919050565b600060208201905081810360008301526132b781612e3c565b9050919050565b600060208201905081810360008301526132d781612e5f565b9050919050565b600060208201905081810360008301526132f781612e82565b9050919050565b6000602082019050818103600083015261331781612ea5565b9050919050565b6000602082019050818103600083015261333781612ec8565b9050919050565b6000602082019050818103600083015261335781612eeb565b9050919050565b6000602082019050818103600083015261337781612f0e565b9050919050565b6000602082019050818103600083015261339781612f31565b9050919050565b600060208201905081810360008301526133b781612f54565b9050919050565b600060208201905081810360008301526133d781612f77565b9050919050565b60006020820190506133f36000830184612f9a565b92915050565b6000613403613414565b905061340f8282613669565b919050565b6000604051905090565b600067ffffffffffffffff821115613439576134386137a1565b5b613442826137d0565b9050602081019050919050565b600081519050919050565b600081519050919050565b600082825260208201905092915050565b600081905092915050565b600082825260208201905092915050565b600081905092915050565b60006134a8826135cc565b91506134b3836135cc565b9250827fffffffffffffffffffffffffffffffffffffffffffffffffffffffffffffffff038211156134e8576134e7613714565b5b828201905092915050565b60006134fe826135cc565b9150613509836135cc565b92508261351957613518613743565b5b828204905092915050565b600061352f826135cc565b915061353a836135cc565b92508282101561354d5761354c613714565b5b828203905092915050565b6000613563826135ac565b9050919050565b60008115159050919050565b6000819050919050565b60007fffffffff0000000000000000000000000000000000000000000000000000000082169050919050565b600073ffffffffffffffffffffffffffffffffffffffff82169050919050565b6000819050919050565b600060ff82169050919050565b60006135ee826135d6565b9050919050565b82818337600083830152505050565b60005b83811015613622578082015181840152602081019050613607565b83811115613631576000848401525b50505050565b6000600282049050600182168061364f57607f821691505b6020821081141561366357613662613772565b5b50919050565b613672826137d0565b810181811067ffffffffffffffff82111715613691576136906137a1565b5b80604052505050565b60006136a5826135cc565b91507fffffffffffffffffffffffffffffffffffffffffffffffffffffffffffffffff8214156136d8576136d7613714565b5b600182019050919050565b60006136ee826135cc565b91506136f9836135cc565b92508261370957613708613743565b5b828206905092915050565b7f4e487b7100000000000000000000000000000000000000000000000000000000600052601160045260246000fd5b7f4e487b7100000000000000000000000000000000000000000000000000000000600052601260045260246000fd5b7f4e487b7100000000000000000000000000000000000000000000000000000000600052602260045260246000fd5b7f4e487b7100000000000000000000000000000000000000000000000000000000600052604160045260246000fd5b6000601f19601f8301169050919050565b7f4552433732313a207472616e7366657220746f206e6f6e20455243373231526560008201527f63656976657220696d706c656d656e7465720000000000000000000000000000602082015250565b7f4f776e61626c653a206e6577206f776e657220697320746865207a65726f206160008201527f6464726573730000000000000000000000000000000000000000000000000000602082015250565b7f4552433732313a207472616e736665722066726f6d20696e636f72726563742060008201527f6f776e6572000000000000000000000000000000000000000000000000000000602082015250565b7f4552433732313a20746f6b656e20616c7265616479206d696e74656400000000600082015250565b7f46756e6374696f6e206d7573742062652063616c6c6564207468726f7567682060008201527f64656c656761746563616c6c0000000000000000000000000000000000000000602082015250565b7f4552433732313a207472616e7366657220746f20746865207a65726f2061646460008201527f7265737300000000000000000000000000000000000000000000000000000000602082015250565b7f4552433732313a20617070726f766520746f2063616c6c657200000000000000600082015250565b7f46756e6374696f6e206d7573742062652063616c6c6564207468726f7567682060008201527f6163746976652070726f78790000000000000000000000000000000000000000602082015250565b7f4552433732313a206f70657261746f7220717565727920666f72206e6f6e657860008201527f697374656e7420746f6b656e0000000000000000000000000000000000000000602082015250565b7f555550535570677261646561626c653a206d757374206e6f742062652063616c60008201527f6c6564207468726f7567682064656c656761746563616c6c0000000000000000602082015250565b7f4552433732313a20617070726f76652063616c6c6572206973206e6f74206f7760008201527f6e6572206e6f7220617070726f76656420666f7220616c6c0000000000000000602082015250565b7f4552433732313a2062616c616e636520717565727920666f7220746865207a6560008201527f726f206164647265737300000000000000000000000000000000000000000000602082015250565b7f4552433732313a206f776e657220717565727920666f72206e6f6e657869737460008201527f656e7420746f6b656e0000000000000000000000000000000000000000000000602082015250565b7f45524331393637557067726164653a20756e737570706f727465642070726f7860008201527f6961626c65555549440000000000000000000000000000000000000000000000602082015250565b7f496e697469616c697a61626c653a20636f6e747261637420697320616c72656160008201527f647920696e697469616c697a6564000000000000000000000000000000000000602082015250565b7f4552433732313a206d696e7420746f20746865207a65726f2061646472657373600082015250565b7f45524331393637557067726164653a206e657720696d706c656d656e7461746960008201527f6f6e206973206e6f742055555053000000000000000000000000000000000000602082015250565b7f4552433732313a20617070726f76656420717565727920666f72206e6f6e657860008201527f697374656e7420746f6b656e0000000000000000000000000000000000000000602082015250565b7f455243313936373a206e657720696d706c656d656e746174696f6e206973206e60008201527f6f74206120636f6e747261637400000000000000000000000000000000000000602082015250565b7f4f776e61626c653a2063616c6c6572206973206e6f7420746865206f776e6572600082015250565b7f4552433732314d657461646174613a2055524920717565727920666f72206e6f60008201527f6e6578697374656e7420746f6b656e0000000000000000000000000000000000602082015250565b7f4552433732313a20617070726f76616c20746f2063757272656e74206f776e6560008201527f7200000000000000000000000000000000000000000000000000000000000000602082015250565b7f416464726573733a2064656c65676174652063616c6c20746f206e6f6e2d636f60008201527f6e74726163740000000000000000000000000000000000000000000000000000602082015250565b7f4552433732313a207472616e736665722063616c6c6572206973206e6f74206f60008201527f776e6572206e6f7220617070726f766564000000000000000000000000000000602082015250565b7f496e697469616c697a61626c653a20636f6e7472616374206973206e6f74206960008201527f6e697469616c697a696e67000000000000000000000000000000000000000000602082015250565b613f0981613558565b8114613f1457600080fd5b50565b613f208161356a565b8114613f2b57600080fd5b50565b613f3781613576565b8114613f4257600080fd5b50565b613f4e81613580565b8114613f5957600080fd5b50565b613f65816135cc565b8114613f7057600080fd5b5056fe416464726573733a206c6f772d6c6576656c2064656c65676174652063616c6c206661696c6564a264697066735822122046cde9f6544ae2105e1bda0e714e0aecba43cc90f34053e26e179a8f55d14a6b64736f6c63430008040033",
  "linkReferences": {},
  "deployedLinkReferences": {}
}