{
  "_format": "hh-sol-artifact-1",
  "contractName": "bDoodles",
  "sourceName": "contracts/bDoodles.sol",
  "abi": [
    {
      "anonymous": false,
      "inputs": [
        {
          "indexed": false,
          "internalType": "address",
          "name": "previousAdmin",
          "type": "address"
        },
        {
          "indexed": false,
          "internalType": "address",
          "name": "newAdmin",
          "type": "address"
        }
      ],
      "name": "AdminChanged",
      "type": "event"
    },
    {
      "anonymous": false,
      "inputs": [
        {
          "indexed": true,
          "internalType": "address",
          "name": "owner",
          "type": "address"
        },
        {
          "indexed": true,
          "internalType": "address",
          "name": "approved",
          "type": "address"
        },
        {
          "indexed": true,
          "internalType": "uint256",
          "name": "tokenId",
          "type": "uint256"
        }
      ],
      "name": "Approval",
      "type": "event"
    },
    {
      "anonymous": false,
      "inputs": [
        {
          "indexed": true,
          "internalType": "address",
          "name": "owner",
          "type": "address"
        },
        {
          "indexed": true,
          "internalType": "address",
          "name": "operator",
          "type": "address"
        },
        {
          "indexed": false,
          "internalType": "bool",
          "name": "approved",
          "type": "bool"
        }
      ],
      "name": "ApprovalForAll",
      "type": "event"
    },
    {
      "anonymous": false,
      "inputs": [
        {
          "indexed": true,
          "internalType": "address",
          "name": "beacon",
          "type": "address"
        }
      ],
      "name": "BeaconUpgraded",
      "type": "event"
    },
    {
      "anonymous": false,
      "inputs": [
        {
          "indexed": false,
          "internalType": "uint8",
          "name": "version",
          "type": "uint8"
        }
      ],
      "name": "Initialized",
      "type": "event"
    },
    {
      "anonymous": false,
      "inputs": [
        {
          "indexed": true,
          "internalType": "address",
          "name": "previousOwner",
          "type": "address"
        },
        {
          "indexed": true,
          "internalType": "address",
          "name": "newOwner",
          "type": "address"
        }
      ],
      "name": "OwnershipTransferred",
      "type": "event"
    },
    {
      "anonymous": false,
      "inputs": [
        {
          "indexed": true,
          "internalType": "address",
          "name": "from",
          "type": "address"
        },
        {
          "indexed": true,
          "internalType": "address",
          "name": "to",
          "type": "address"
        },
        {
          "indexed": true,
          "internalType": "uint256",
          "name": "tokenId",
          "type": "uint256"
        }
      ],
      "name": "Transfer",
      "type": "event"
    },
    {
      "anonymous": false,
      "inputs": [
        {
          "indexed": true,
          "internalType": "address",
          "name": "implementation",
          "type": "address"
        }
      ],
      "name": "Upgraded",
      "type": "event"
    },
    {
      "inputs": [
        {
          "internalType": "address",
          "name": "to",
          "type": "address"
        },
        {
          "internalType": "uint256",
          "name": "tokenId",
          "type": "uint256"
        }
      ],
      "name": "approve",
      "outputs": [],
      "stateMutability": "nonpayable",
      "type": "function"
    },
    {
      "inputs": [
        {
          "internalType": "address",
          "name": "owner",
          "type": "address"
        }
      ],
      "name": "balanceOf",
      "outputs": [
        {
          "internalType": "uint256",
          "name": "",
          "type": "uint256"
        }
      ],
      "stateMutability": "view",
      "type": "function"
    },
    {
      "inputs": [
        {
          "internalType": "uint256",
          "name": "tokenId",
          "type": "uint256"
        }
      ],
      "name": "getApproved",
      "outputs": [
        {
          "internalType": "address",
          "name": "",
          "type": "address"
        }
      ],
      "stateMutability": "view",
      "type": "function"
    },
    {
      "inputs": [],
      "name": "initialize",
      "outputs": [],
      "stateMutability": "nonpayable",
      "type": "function"
    },
    {
      "inputs": [
        {
          "internalType": "address",
          "name": "owner",
          "type": "address"
        },
        {
          "internalType": "address",
          "name": "operator",
          "type": "address"
        }
      ],
      "name": "isApprovedForAll",
      "outputs": [
        {
          "internalType": "bool",
          "name": "",
          "type": "bool"
        }
      ],
      "stateMutability": "view",
      "type": "function"
    },
    {
      "inputs": [],
      "name": "name",
      "outputs": [
        {
          "internalType": "string",
          "name": "",
          "type": "string"
        }
      ],
      "stateMutability": "view",
      "type": "function"
    },
    {
      "inputs": [],
      "name": "owner",
      "outputs": [
        {
          "internalType": "address",
          "name": "",
          "type": "address"
        }
      ],
      "stateMutability": "view",
      "type": "function"
    },
    {
      "inputs": [
        {
          "internalType": "uint256",
          "name": "tokenId",
          "type": "uint256"
        }
      ],
      "name": "ownerOf",
      "outputs": [
        {
          "internalType": "address",
          "name": "",
          "type": "address"
        }
      ],
      "stateMutability": "view",
      "type": "function"
    },
    {
      "inputs": [],
      "name": "proxiableUUID",
      "outputs": [
        {
          "internalType": "bytes32",
          "name": "",
          "type": "bytes32"
        }
      ],
      "stateMutability": "view",
      "type": "function"
    },
    {
      "inputs": [],
      "name": "renounceOwnership",
      "outputs": [],
      "stateMutability": "nonpayable",
      "type": "function"
    },
    {
      "inputs": [
        {
          "internalType": "address",
          "name": "from",
          "type": "address"
        },
        {
          "internalType": "address",
          "name": "to",
          "type": "address"
        },
        {
          "internalType": "uint256",
          "name": "tokenId",
          "type": "uint256"
        }
      ],
      "name": "safeTransferFrom",
      "outputs": [],
      "stateMutability": "nonpayable",
      "type": "function"
    },
    {
      "inputs": [
        {
          "internalType": "address",
          "name": "from",
          "type": "address"
        },
        {
          "internalType": "address",
          "name": "to",
          "type": "address"
        },
        {
          "internalType": "uint256",
          "name": "tokenId",
          "type": "uint256"
        },
        {
          "internalType": "bytes",
          "name": "_data",
          "type": "bytes"
        }
      ],
      "name": "safeTransferFrom",
      "outputs": [],
      "stateMutability": "nonpayable",
      "type": "function"
    },
    {
      "inputs": [
        {
          "internalType": "address",
          "name": "operator",
          "type": "address"
        },
        {
          "internalType": "bool",
          "name": "approved",
          "type": "bool"
        }
      ],
      "name": "setApprovalForAll",
      "outputs": [],
      "stateMutability": "nonpayable",
      "type": "function"
    },
    {
      "inputs": [
        {
          "internalType": "bytes4",
          "name": "interfaceId",
          "type": "bytes4"
        }
      ],
      "name": "supportsInterface",
      "outputs": [
        {
          "internalType": "bool",
          "name": "",
          "type": "bool"
        }
      ],
      "stateMutability": "view",
      "type": "function"
    },
    {
      "inputs": [],
      "name": "symbol",
      "outputs": [
        {
          "internalType": "string",
          "name": "",
          "type": "string"
        }
      ],
      "stateMutability": "view",
      "type": "function"
    },
    {
      "inputs": [
        {
          "internalType": "uint256",
          "name": "tokenId",
          "type": "uint256"
        }
      ],
      "name": "tokenURI",
      "outputs": [
        {
          "internalType": "string",
          "name": "",
          "type": "string"
        }
      ],
      "stateMutability": "view",
      "type": "function"
    },
    {
      "inputs": [
        {
          "internalType": "address",
          "name": "from",
          "type": "address"
        },
        {
          "internalType": "address",
          "name": "to",
          "type": "address"
        },
        {
          "internalType": "uint256",
          "name": "tokenId",
          "type": "uint256"
        }
      ],
      "name": "transferFrom",
      "outputs": [],
      "stateMutability": "nonpayable",
      "type": "function"
    },
    {
      "inputs": [
        {
          "internalType": "address",
          "name": "newOwner",
          "type": "address"
        }
      ],
      "name": "transferOwnership",
      "outputs": [],
      "stateMutability": "nonpayable",
      "type": "function"
    },
    {
      "inputs": [
        {
          "internalType": "address",
          "name": "newImplementation",
          "type": "address"
        }
      ],
      "name": "upgradeTo",
      "outputs": [],
      "stateMutability": "nonpayable",
      "type": "function"
    },
    {
      "inputs": [
        {
          "internalType": "address",
          "name": "newImplementation",
          "type": "address"
        },
        {
          "internalType": "bytes",
          "name": "data",
          "type": "bytes"
        }
      ],
      "name": "upgradeToAndCall",
      "outputs": [],
      "stateMutability": "payable",
      "type": "function"
    }
  ],
  "bytecode": "0x60a06040523073ffffffffffffffffffffffffffffffffffffffff1660809073ffffffffffffffffffffffffffffffffffffffff1660601b81525034801561004657600080fd5b5060805160601c613f5d6100816000396000818161081a015281816108a9015281816109e901528181610a780152610b280152613f5d6000f3fe60806040526004361061011f5760003560e01c806370a08231116100a0578063a22cb46511610064578063a22cb465146103b2578063b88d4fde146103db578063c87b56dd14610404578063e985e9c514610441578063f2fde38b1461047e5761011f565b806370a08231146102f1578063715018a61461032e5780638129fc1c146103455780638da5cb5b1461035c57806395d89b41146103875761011f565b80633659cfe6116100e75780633659cfe61461021b57806342842e0e146102445780634f1ef2861461026d57806352d1902d146102895780636352211e146102b45761011f565b806301ffc9a71461012457806306fdde0314610161578063081812fc1461018c578063095ea7b3146101c957806323b872dd146101f2575b600080fd5b34801561013057600080fd5b5061014b60048036038101906101469190612a31565b6104a7565b6040516101589190612fd8565b60405180910390f35b34801561016d57600080fd5b50610176610589565b6040516101839190613029565b60405180910390f35b34801561019857600080fd5b506101b360048036038101906101ae9190612a83565b61061b565b6040516101c09190612f71565b60405180910390f35b3480156101d557600080fd5b506101f060048036038101906101eb91906129cc565b6106a0565b005b3480156101fe57600080fd5b5061021960048036038101906102149190612872565b6107b8565b005b34801561022757600080fd5b50610242600480360381019061023d919061280d565b610818565b005b34801561025057600080fd5b5061026b60048036038101906102669190612872565b6109c7565b005b61028760048036038101906102829190612978565b6109e7565b005b34801561029557600080fd5b5061029e610b24565b6040516102ab9190612ff3565b60405180910390f35b3480156102c057600080fd5b506102db60048036038101906102d69190612a83565b610bdd565b6040516102e89190612f71565b60405180910390f35b3480156102fd57600080fd5b506103186004803603810190610313919061280d565b610c8f565b604051610325919061336b565b60405180910390f35b34801561033a57600080fd5b50610343610d47565b005b34801561035157600080fd5b5061035a610dcf565b005b34801561036857600080fd5b50610371610ee2565b60405161037e9190612f71565b60405180910390f35b34801561039357600080fd5b5061039c610f0c565b6040516103a99190613029565b60405180910390f35b3480156103be57600080fd5b506103d960048036038101906103d4919061293c565b610f9e565b005b3480156103e757600080fd5b5061040260048036038101906103fd91906128c1565b610fb4565b005b34801561041057600080fd5b5061042b60048036038101906104269190612a83565b611016565b6040516104389190613029565b60405180910390f35b34801561044d57600080fd5b5061046860048036038101906104639190612836565b6110bd565b6040516104759190612fd8565b60405180910390f35b34801561048a57600080fd5b506104a560048036038101906104a0919061280d565b611151565b005b60007f80ac58cd000000000000000000000000000000000000000000000000000000007bffffffffffffffffffffffffffffffffffffffffffffffffffffffff1916827bffffffffffffffffffffffffffffffffffffffffffffffffffffffff1916148061057257507f5b5e139f000000000000000000000000000000000000000000000000000000007bffffffffffffffffffffffffffffffffffffffffffffffffffffffff1916827bffffffffffffffffffffffffffffffffffffffffffffffffffffffff1916145b80610582575061058182611249565b5b9050919050565b606060658054610598906135c4565b80601f01602080910402602001604051908101604052809291908181526020018280546105c4906135c4565b80156106115780601f106105e657610100808354040283529160200191610611565b820191906000526020600020905b8154815290600101906020018083116105f457829003601f168201915b5050505050905090565b6000610626826112b3565b610665576040517f08c379a000000000000000000000000000000000000000000000000000000000815260040161065c9061326b565b60405180910390fd5b6069600083815260200190815260200160002060009054906101000a900473ffffffffffffffffffffffffffffffffffffffff169050919050565b60006106ab82610bdd565b90508073ffffffffffffffffffffffffffffffffffffffff168373ffffffffffffffffffffffffffffffffffffffff16141561071c576040517f08c379a0000000000000000000000000000000000000000000000000000000008152600401610713906132eb565b60405180910390fd5b8073ffffffffffffffffffffffffffffffffffffffff1661073b61131f565b73ffffffffffffffffffffffffffffffffffffffff16148061076a57506107698161076461131f565b6110bd565b5b6107a9576040517f08c379a00000000000000000000000000000000000000000000000000000000081526004016107a09061318b565b60405180910390fd5b6107b38383611327565b505050565b6107c96107c361131f565b826113e0565b610808576040517f08c379a00000000000000000000000000000000000000000000000000000000081526004016107ff9061332b565b60405180910390fd5b6108138383836114be565b505050565b7f000000000000000000000000000000000000000000000000000000000000000073ffffffffffffffffffffffffffffffffffffffff163073ffffffffffffffffffffffffffffffffffffffff1614156108a7576040517f08c379a000000000000000000000000000000000000000000000000000000000815260040161089e906130cb565b60405180910390fd5b7f000000000000000000000000000000000000000000000000000000000000000073ffffffffffffffffffffffffffffffffffffffff166108e6611725565b73ffffffffffffffffffffffffffffffffffffffff161461093c576040517f08c379a00000000000000000000000000000000000000000000000000000000081526004016109339061312b565b60405180910390fd5b6109458161177c565b6109c481600067ffffffffffffffff81111561098a577f4e487b7100000000000000000000000000000000000000000000000000000000600052604160045260246000fd5b6040519080825280601f01601f1916602001820160405280156109bc5781602001600182028036833780820191505090505b5060006117fb565b50565b6109e283838360405180602001604052806000815250610fb4565b505050565b7f000000000000000000000000000000000000000000000000000000000000000073ffffffffffffffffffffffffffffffffffffffff163073ffffffffffffffffffffffffffffffffffffffff161415610a76576040517f08c379a0000000000000000000000000000000000000000000000000000000008152600401610a6d906130cb565b60405180910390fd5b7f000000000000000000000000000000000000000000000000000000000000000073ffffffffffffffffffffffffffffffffffffffff16610ab5611725565b73ffffffffffffffffffffffffffffffffffffffff1614610b0b576040517f08c379a0000000000000000000000000000000000000000000000000000000008152600401610b029061312b565b60405180910390fd5b610b148261177c565b610b20828260016117fb565b5050565b60007f000000000000000000000000000000000000000000000000000000000000000073ffffffffffffffffffffffffffffffffffffffff163073ffffffffffffffffffffffffffffffffffffffff1614610bb4576040517f08c379a0000000000000000000000000000000000000000000000000000000008152600401610bab9061316b565b60405180910390fd5b7f360894a13ba1a3210667c828492db98dca3e2076cc3735a920a3ca505d382bbc60001b905090565b6000806067600084815260200190815260200160002060009054906101000a900473ffffffffffffffffffffffffffffffffffffffff169050600073ffffffffffffffffffffffffffffffffffffffff168173ffffffffffffffffffffffffffffffffffffffff161415610c86576040517f08c379a0000000000000000000000000000000000000000000000000000000008152600401610c7d906131cb565b60405180910390fd5b80915050919050565b60008073ffffffffffffffffffffffffffffffffffffffff168273ffffffffffffffffffffffffffffffffffffffff161415610d00576040517f08c379a0000000000000000000000000000000000000000000000000000000008152600401610cf7906131ab565b60405180910390fd5b606860008373ffffffffffffffffffffffffffffffffffffffff1673ffffffffffffffffffffffffffffffffffffffff168152602001908152602001600020549050919050565b610d4f61131f565b73ffffffffffffffffffffffffffffffffffffffff16610d6d610ee2565b73ffffffffffffffffffffffffffffffffffffffff1614610dc3576040517f08c379a0000000000000000000000000000000000000000000000000000000008152600401610dba906132ab565b60405180910390fd5b610dcd6000611978565b565b6000610ddb6001611a3e565b90508015610dff576001600060016101000a81548160ff0219169083151502179055505b610e736040518060400160405280600881526020017f62446f6f646c65730000000000000000000000000000000000000000000000008152506040518060400160405280600381526020017f42444f0000000000000000000000000000000000000000000000000000000000815250611b2e565b610e7b611b8b565b610e86336001611be4565b8015610edf5760008060016101000a81548160ff0219169083151502179055507f7f26b83ff96e1f2b6a682f133852f6798a09c465da95921460cefb38474024986001604051610ed6919061300e565b60405180910390a15b50565b600060fb60009054906101000a900473ffffffffffffffffffffffffffffffffffffffff16905090565b606060668054610f1b906135c4565b80601f0160208091040260200160405190810160405280929190818152602001828054610f47906135c4565b8015610f945780601f10610f6957610100808354040283529160200191610f94565b820191906000526020600020905b815481529060010190602001808311610f7757829003601f168201915b5050505050905090565b610fb0610fa961131f565b8383611dbe565b5050565b610fc5610fbf61131f565b836113e0565b611004576040517f08c379a0000000000000000000000000000000000000000000000000000000008152600401610ffb9061332b565b60405180910390fd5b61101084848484611f2b565b50505050565b6060611021826112b3565b611060576040517f08c379a0000000000000000000000000000000000000000000000000000000008152600401611057906132cb565b60405180910390fd5b600061106a611f87565b9050600081511161108a57604051806020016040528060008152506110b5565b8061109484611f9e565b6040516020016110a5929190612f4d565b6040516020818303038152906040525b915050919050565b6000606a60008473ffffffffffffffffffffffffffffffffffffffff1673ffffffffffffffffffffffffffffffffffffffff16815260200190815260200160002060008373ffffffffffffffffffffffffffffffffffffffff1673ffffffffffffffffffffffffffffffffffffffff16815260200190815260200160002060009054906101000a900460ff16905092915050565b61115961131f565b73ffffffffffffffffffffffffffffffffffffffff16611177610ee2565b73ffffffffffffffffffffffffffffffffffffffff16146111cd576040517f08c379a00000000000000000000000000000000000000000000000000000000081526004016111c4906132ab565b60405180910390fd5b600073ffffffffffffffffffffffffffffffffffffffff168173ffffffffffffffffffffffffffffffffffffffff16141561123d576040517f08c379a00000000000000000000000000000000000000000000000000000000081526004016112349061306b565b60405180910390fd5b61124681611978565b50565b60007f01ffc9a7000000000000000000000000000000000000000000000000000000007bffffffffffffffffffffffffffffffffffffffffffffffffffffffff1916827bffffffffffffffffffffffffffffffffffffffffffffffffffffffff1916149050919050565b60008073ffffffffffffffffffffffffffffffffffffffff166067600084815260200190815260200160002060009054906101000a900473ffffffffffffffffffffffffffffffffffffffff1673ffffffffffffffffffffffffffffffffffffffff1614159050919050565b600033905090565b816069600083815260200190815260200160002060006101000a81548173ffffffffffffffffffffffffffffffffffffffff021916908373ffffffffffffffffffffffffffffffffffffffff160217905550808273ffffffffffffffffffffffffffffffffffffffff1661139a83610bdd565b73ffffffffffffffffffffffffffffffffffffffff167f8c5be1e5ebec7d5bd14f71427d1e84f3dd0314c0f7b2291e5b200ac8c7c3b92560405160405180910390a45050565b60006113eb826112b3565b61142a576040517f08c379a00000000000000000000000000000000000000000000000000000000081526004016114219061314b565b60405180910390fd5b600061143583610bdd565b90508073ffffffffffffffffffffffffffffffffffffffff168473ffffffffffffffffffffffffffffffffffffffff161480611477575061147681856110bd565b5b806114b557508373ffffffffffffffffffffffffffffffffffffffff1661149d8461061b565b73ffffffffffffffffffffffffffffffffffffffff16145b91505092915050565b8273ffffffffffffffffffffffffffffffffffffffff166114de82610bdd565b73ffffffffffffffffffffffffffffffffffffffff1614611534576040517f08c379a000000000000000000000000000000000000000000000000000000000815260040161152b9061308b565b60405180910390fd5b600073ffffffffffffffffffffffffffffffffffffffff168273ffffffffffffffffffffffffffffffffffffffff1614156115a4576040517f08c379a000000000000000000000000000000000000000000000000000000000815260040161159b906130eb565b60405180910390fd5b6115af83838361214b565b6115ba600082611327565b6001606860008573ffffffffffffffffffffffffffffffffffffffff1673ffffffffffffffffffffffffffffffffffffffff168152602001908152602001600020600082825461160a91906134b1565b925050819055506001606860008473ffffffffffffffffffffffffffffffffffffffff1673ffffffffffffffffffffffffffffffffffffffff1681526020019081526020016000206000828254611661919061342a565b92505081905550816067600083815260200190815260200160002060006101000a81548173ffffffffffffffffffffffffffffffffffffffff021916908373ffffffffffffffffffffffffffffffffffffffff160217905550808273ffffffffffffffffffffffffffffffffffffffff168473ffffffffffffffffffffffffffffffffffffffff167fddf252ad1be2c89b69c2b068fc378daa952ba7f163c4a11628f55a4df523b3ef60405160405180910390a4611720838383612150565b505050565b60006117537f360894a13ba1a3210667c828492db98dca3e2076cc3735a920a3ca505d382bbc60001b612155565b60000160009054906101000a900473ffffffffffffffffffffffffffffffffffffffff16905090565b61178461131f565b73ffffffffffffffffffffffffffffffffffffffff166117a2610ee2565b73ffffffffffffffffffffffffffffffffffffffff16146117f8576040517f08c379a00000000000000000000000000000000000000000000000000000000081526004016117ef906132ab565b60405180910390fd5b50565b6118277f4910fdfa16fed3260ed0e7147f7cc6da11a60208b5b9406d12a635614ffd914360001b61215f565b60000160009054906101000a900460ff161561184b5761184683612169565b611973565b8273ffffffffffffffffffffffffffffffffffffffff166352d1902d6040518163ffffffff1660e01b815260040160206040518083038186803b15801561189157600080fd5b505afa9250505080156118c257506040513d601f19601f820116820180604052508101906118bf9190612a08565b60015b611901576040517f08c379a00000000000000000000000000000000000000000000000000000000081526004016118f89061324b565b60405180910390fd5b7f360894a13ba1a3210667c828492db98dca3e2076cc3735a920a3ca505d382bbc60001b8114611966576040517f08c379a000000000000000000000000000000000000000000000000000000000815260040161195d906131eb565b60405180910390fd5b50611972838383612222565b5b505050565b600060fb60009054906101000a900473ffffffffffffffffffffffffffffffffffffffff1690508160fb60006101000a81548173ffffffffffffffffffffffffffffffffffffffff021916908373ffffffffffffffffffffffffffffffffffffffff1602179055508173ffffffffffffffffffffffffffffffffffffffff168173ffffffffffffffffffffffffffffffffffffffff167f8be0079c531659141344cd1fd0a4f28419497f9722a3daafe3b4186f6b6457e060405160405180910390a35050565b60008060019054906101000a900460ff1615611ab55760018260ff16148015611a6d5750611a6b3061224e565b155b611aac576040517f08c379a0000000000000000000000000000000000000000000000000000000008152600401611aa39061320b565b60405180910390fd5b60009050611b29565b8160ff1660008054906101000a900460ff1660ff1610611b0a576040517f08c379a0000000000000000000000000000000000000000000000000000000008152600401611b019061320b565b60405180910390fd5b816000806101000a81548160ff021916908360ff160217905550600190505b919050565b600060019054906101000a900460ff16611b7d576040517f08c379a0000000000000000000000000000000000000000000000000000000008152600401611b749061334b565b60405180910390fd5b611b878282612271565b5050565b600060019054906101000a900460ff16611bda576040517f08c379a0000000000000000000000000000000000000000000000000000000008152600401611bd19061334b565b60405180910390fd5b611be26122f2565b565b600073ffffffffffffffffffffffffffffffffffffffff168273ffffffffffffffffffffffffffffffffffffffff161415611c54576040517f08c379a0000000000000000000000000000000000000000000000000000000008152600401611c4b9061322b565b60405180910390fd5b611c5d816112b3565b15611c9d576040517f08c379a0000000000000000000000000000000000000000000000000000000008152600401611c94906130ab565b60405180910390fd5b611ca96000838361214b565b6001606860008473ffffffffffffffffffffffffffffffffffffffff1673ffffffffffffffffffffffffffffffffffffffff1681526020019081526020016000206000828254611cf9919061342a565b92505081905550816067600083815260200190815260200160002060006101000a81548173ffffffffffffffffffffffffffffffffffffffff021916908373ffffffffffffffffffffffffffffffffffffffff160217905550808273ffffffffffffffffffffffffffffffffffffffff16600073ffffffffffffffffffffffffffffffffffffffff167fddf252ad1be2c89b69c2b068fc378daa952ba7f163c4a11628f55a4df523b3ef60405160405180910390a4611dba60008383612150565b5050565b8173ffffffffffffffffffffffffffffffffffffffff168373ffffffffffffffffffffffffffffffffffffffff161415611e2d576040517f08c379a0000000000000000000000000000000000000000000000000000000008152600401611e249061310b565b60405180910390fd5b80606a60008573ffffffffffffffffffffffffffffffffffffffff1673ffffffffffffffffffffffffffffffffffffffff16815260200190815260200160002060008473ffffffffffffffffffffffffffffffffffffffff1673ffffffffffffffffffffffffffffffffffffffff16815260200190815260200160002060006101000a81548160ff0219169083151502179055508173ffffffffffffffffffffffffffffffffffffffff168373ffffffffffffffffffffffffffffffffffffffff167f17307eab39ab6107e8899845ad3d59bd9653f200f220920489ca2b5937696c3183604051611f1e9190612fd8565b60405180910390a3505050565b611f368484846114be565b611f4284848484612353565b611f81576040517f08c379a0000000000000000000000000000000000000000000000000000000008152600401611f789061304b565b60405180910390fd5b50505050565b606060405180602001604052806000815250905090565b60606000821415611fe6576040518060400160405280600181526020017f30000000000000000000000000000000000000000000000000000000000000008152509050612146565b600082905060005b6000821461201857808061200190613627565b915050600a826120119190613480565b9150611fee565b60008167ffffffffffffffff81111561205a577f4e487b7100000000000000000000000000000000000000000000000000000000600052604160045260246000fd5b6040519080825280601f01601f19166020018201604052801561208c5781602001600182028036833780820191505090505b5090505b6000851461213f576001826120a591906134b1565b9150600a856120b49190613670565b60306120c0919061342a565b60f81b8183815181106120fc577f4e487b7100000000000000000000000000000000000000000000000000000000600052603260045260246000fd5b60200101907effffffffffffffffffffffffffffffffffffffffffffffffffffffffffffff1916908160001a905350600a856121389190613480565b9450612090565b8093505050505b919050565b505050565b505050565b6000819050919050565b6000819050919050565b6121728161224e565b6121b1576040517f08c379a00000000000000000000000000000000000000000000000000000000081526004016121a89061328b565b60405180910390fd5b806121de7f360894a13ba1a3210667c828492db98dca3e2076cc3735a920a3ca505d382bbc60001b612155565b60000160006101000a81548173ffffffffffffffffffffffffffffffffffffffff021916908373ffffffffffffffffffffffffffffffffffffffff16021790555050565b61222b836124ea565b6000825111806122385750805b15612249576122478383612539565b505b505050565b6000808273ffffffffffffffffffffffffffffffffffffffff163b119050919050565b600060019054906101000a900460ff166122c0576040517f08c379a00000000000000000000000000000000000000000000000000000000081526004016122b79061334b565b60405180910390fd5b81606590805190602001906122d6929190612684565b5080606690805190602001906122ed929190612684565b505050565b600060019054906101000a900460ff16612341576040517f08c379a00000000000000000000000000000000000000000000000000000000081526004016123389061334b565b60405180910390fd5b61235161234c61131f565b611978565b565b60006123748473ffffffffffffffffffffffffffffffffffffffff1661224e565b156124dd578373ffffffffffffffffffffffffffffffffffffffff1663150b7a0261239d61131f565b8786866040518563ffffffff1660e01b81526004016123bf9493929190612f8c565b602060405180830381600087803b1580156123d957600080fd5b505af192505050801561240a57506040513d601f19601f820116820180604052508101906124079190612a5a565b60015b61248d573d806000811461243a576040519150601f19603f3d011682016040523d82523d6000602084013e61243f565b606091505b50600081511415612485576040517f08c379a000000000000000000000000000000000000000000000000000000000815260040161247c9061304b565b60405180910390fd5b805181602001fd5b63150b7a0260e01b7bffffffffffffffffffffffffffffffffffffffffffffffffffffffff1916817bffffffffffffffffffffffffffffffffffffffffffffffffffffffff1916149150506124e2565b600190505b949350505050565b6124f381612169565b8073ffffffffffffffffffffffffffffffffffffffff167fbc7cd75a20ee27fd9adebab32041f755214dbc6bffa90cc0225b39da2e5c2d3b60405160405180910390a250565b60606125448361224e565b612583576040517f08c379a000000000000000000000000000000000000000000000000000000000815260040161257a9061330b565b60405180910390fd5b6000808473ffffffffffffffffffffffffffffffffffffffff16846040516125ab9190612f36565b600060405180830381855af49150503d80600081146125e6576040519150601f19603f3d011682016040523d82523d6000602084013e6125eb565b606091505b50915091506126138282604051806060016040528060278152602001613f016027913961261d565b9250505092915050565b6060831561262d5782905061267d565b6000835111156126405782518084602001fd5b816040517f08c379a00000000000000000000000000000000000000000000000000000000081526004016126749190613029565b60405180910390fd5b9392505050565b828054612690906135c4565b90600052602060002090601f0160209004810192826126b257600085556126f9565b82601f106126cb57805160ff19168380011785556126f9565b828001600101855582156126f9579182015b828111156126f85782518255916020019190600101906126dd565b5b509050612706919061270a565b5090565b5b8082111561272357600081600090555060010161270b565b5090565b600061273a612735846133ab565b613386565b90508281526020810184848401111561275257600080fd5b61275d848285613582565b509392505050565b60008135905061277481613e8d565b92915050565b60008135905061278981613ea4565b92915050565b60008151905061279e81613ebb565b92915050565b6000813590506127b381613ed2565b92915050565b6000815190506127c881613ed2565b92915050565b600082601f8301126127df57600080fd5b81356127ef848260208601612727565b91505092915050565b60008135905061280781613ee9565b92915050565b60006020828403121561281f57600080fd5b600061282d84828501612765565b91505092915050565b6000806040838503121561284957600080fd5b600061285785828601612765565b925050602061286885828601612765565b9150509250929050565b60008060006060848603121561288757600080fd5b600061289586828701612765565b93505060206128a686828701612765565b92505060406128b7868287016127f8565b9150509250925092565b600080600080608085870312156128d757600080fd5b60006128e587828801612765565b94505060206128f687828801612765565b9350506040612907878288016127f8565b925050606085013567ffffffffffffffff81111561292457600080fd5b612930878288016127ce565b91505092959194509250565b6000806040838503121561294f57600080fd5b600061295d85828601612765565b925050602061296e8582860161277a565b9150509250929050565b6000806040838503121561298b57600080fd5b600061299985828601612765565b925050602083013567ffffffffffffffff8111156129b657600080fd5b6129c2858286016127ce565b9150509250929050565b600080604083850312156129df57600080fd5b60006129ed85828601612765565b92505060206129fe858286016127f8565b9150509250929050565b600060208284031215612a1a57600080fd5b6000612a288482850161278f565b91505092915050565b600060208284031215612a4357600080fd5b6000612a51848285016127a4565b91505092915050565b600060208284031215612a6c57600080fd5b6000612a7a848285016127b9565b91505092915050565b600060208284031215612a9557600080fd5b6000612aa3848285016127f8565b91505092915050565b612ab5816134e5565b82525050565b612ac4816134f7565b82525050565b612ad381613503565b82525050565b6000612ae4826133dc565b612aee81856133f2565b9350612afe818560208601613591565b612b078161375d565b840191505092915050565b6000612b1d826133dc565b612b278185613403565b9350612b37818560208601613591565b80840191505092915050565b612b4c81613570565b82525050565b6000612b5d826133e7565b612b67818561340e565b9350612b77818560208601613591565b612b808161375d565b840191505092915050565b6000612b96826133e7565b612ba0818561341f565b9350612bb0818560208601613591565b80840191505092915050565b6000612bc960328361340e565b9150612bd48261376e565b604082019050919050565b6000612bec60268361340e565b9150612bf7826137bd565b604082019050919050565b6000612c0f60258361340e565b9150612c1a8261380c565b604082019050919050565b6000612c32601c8361340e565b9150612c3d8261385b565b602082019050919050565b6000612c55602c8361340e565b9150612c6082613884565b604082019050919050565b6000612c7860248361340e565b9150612c83826138d3565b604082019050919050565b6000612c9b60198361340e565b9150612ca682613922565b602082019050919050565b6000612cbe602c8361340e565b9150612cc98261394b565b604082019050919050565b6000612ce1602c8361340e565b9150612cec8261399a565b604082019050919050565b6000612d0460388361340e565b9150612d0f826139e9565b604082019050919050565b6000612d2760388361340e565b9150612d3282613a38565b604082019050919050565b6000612d4a602a8361340e565b9150612d5582613a87565b604082019050919050565b6000612d6d60298361340e565b9150612d7882613ad6565b604082019050919050565b6000612d9060298361340e565b9150612d9b82613b25565b604082019050919050565b6000612db3602e8361340e565b9150612dbe82613b74565b604082019050919050565b6000612dd660208361340e565b9150612de182613bc3565b602082019050919050565b6000612df9602e8361340e565b9150612e0482613bec565b604082019050919050565b6000612e1c602c8361340e565b9150612e2782613c3b565b604082019050919050565b6000612e3f602d8361340e565b9150612e4a82613c8a565b604082019050919050565b6000612e6260208361340e565b9150612e6d82613cd9565b602082019050919050565b6000612e85602f8361340e565b9150612e9082613d02565b604082019050919050565b6000612ea860218361340e565b9150612eb382613d51565b604082019050919050565b6000612ecb60268361340e565b9150612ed682613da0565b604082019050919050565b6000612eee60318361340e565b9150612ef982613def565b604082019050919050565b6000612f11602b8361340e565b9150612f1c82613e3e565b604082019050919050565b612f3081613559565b82525050565b6000612f428284612b12565b915081905092915050565b6000612f598285612b8b565b9150612f658284612b8b565b91508190509392505050565b6000602082019050612f866000830184612aac565b92915050565b6000608082019050612fa16000830187612aac565b612fae6020830186612aac565b612fbb6040830185612f27565b8181036060830152612fcd8184612ad9565b905095945050505050565b6000602082019050612fed6000830184612abb565b92915050565b60006020820190506130086000830184612aca565b92915050565b60006020820190506130236000830184612b43565b92915050565b600060208201905081810360008301526130438184612b52565b905092915050565b6000602082019050818103600083015261306481612bbc565b9050919050565b6000602082019050818103600083015261308481612bdf565b9050919050565b600060208201905081810360008301526130a481612c02565b9050919050565b600060208201905081810360008301526130c481612c25565b9050919050565b600060208201905081810360008301526130e481612c48565b9050919050565b6000602082019050818103600083015261310481612c6b565b9050919050565b6000602082019050818103600083015261312481612c8e565b9050919050565b6000602082019050818103600083015261314481612cb1565b9050919050565b6000602082019050818103600083015261316481612cd4565b9050919050565b6000602082019050818103600083015261318481612cf7565b9050919050565b600060208201905081810360008301526131a481612d1a565b9050919050565b600060208201905081810360008301526131c481612d3d565b9050919050565b600060208201905081810360008301526131e481612d60565b9050919050565b6000602082019050818103600083015261320481612d83565b9050919050565b6000602082019050818103600083015261322481612da6565b9050919050565b6000602082019050818103600083015261324481612dc9565b9050919050565b6000602082019050818103600083015261326481612dec565b9050919050565b6000602082019050818103600083015261328481612e0f565b9050919050565b600060208201905081810360008301526132a481612e32565b9050919050565b600060208201905081810360008301526132c481612e55565b9050919050565b600060208201905081810360008301526132e481612e78565b9050919050565b6000602082019050818103600083015261330481612e9b565b9050919050565b6000602082019050818103600083015261332481612ebe565b9050919050565b6000602082019050818103600083015261334481612ee1565b9050919050565b6000602082019050818103600083015261336481612f04565b9050919050565b60006020820190506133806000830184612f27565b92915050565b60006133906133a1565b905061339c82826135f6565b919050565b6000604051905090565b600067ffffffffffffffff8211156133c6576133c561372e565b5b6133cf8261375d565b9050602081019050919050565b600081519050919050565b600081519050919050565b600082825260208201905092915050565b600081905092915050565b600082825260208201905092915050565b600081905092915050565b600061343582613559565b915061344083613559565b9250827fffffffffffffffffffffffffffffffffffffffffffffffffffffffffffffffff03821115613475576134746136a1565b5b828201905092915050565b600061348b82613559565b915061349683613559565b9250826134a6576134a56136d0565b5b828204905092915050565b60006134bc82613559565b91506134c783613559565b9250828210156134da576134d96136a1565b5b828203905092915050565b60006134f082613539565b9050919050565b60008115159050919050565b6000819050919050565b60007fffffffff0000000000000000000000000000000000000000000000000000000082169050919050565b600073ffffffffffffffffffffffffffffffffffffffff82169050919050565b6000819050919050565b600060ff82169050919050565b600061357b82613563565b9050919050565b82818337600083830152505050565b60005b838110156135af578082015181840152602081019050613594565b838111156135be576000848401525b50505050565b600060028204905060018216806135dc57607f821691505b602082108114156135f0576135ef6136ff565b5b50919050565b6135ff8261375d565b810181811067ffffffffffffffff8211171561361e5761361d61372e565b5b80604052505050565b600061363282613559565b91507fffffffffffffffffffffffffffffffffffffffffffffffffffffffffffffffff821415613665576136646136a1565b5b600182019050919050565b600061367b82613559565b915061368683613559565b925082613696576136956136d0565b5b828206905092915050565b7f4e487b7100000000000000000000000000000000000000000000000000000000600052601160045260246000fd5b7f4e487b7100000000000000000000000000000000000000000000000000000000600052601260045260246000fd5b7f4e487b7100000000000000000000000000000000000000000000000000000000600052602260045260246000fd5b7f4e487b7100000000000000000000000000000000000000000000000000000000600052604160045260246000fd5b6000601f19601f8301169050919050565b7f4552433732313a207472616e7366657220746f206e6f6e20455243373231526560008201527f63656976657220696d706c656d656e7465720000000000000000000000000000602082015250565b7f4f776e61626c653a206e6577206f776e657220697320746865207a65726f206160008201527f6464726573730000000000000000000000000000000000000000000000000000602082015250565b7f4552433732313a207472616e736665722066726f6d20696e636f72726563742060008201527f6f776e6572000000000000000000000000000000000000000000000000000000602082015250565b7f4552433732313a20746f6b656e20616c7265616479206d696e74656400000000600082015250565b7f46756e6374696f6e206d7573742062652063616c6c6564207468726f7567682060008201527f64656c656761746563616c6c0000000000000000000000000000000000000000602082015250565b7f4552433732313a207472616e7366657220746f20746865207a65726f2061646460008201527f7265737300000000000000000000000000000000000000000000000000000000602082015250565b7f4552433732313a20617070726f766520746f2063616c6c657200000000000000600082015250565b7f46756e6374696f6e206d7573742062652063616c6c6564207468726f7567682060008201527f6163746976652070726f78790000000000000000000000000000000000000000602082015250565b7f4552433732313a206f70657261746f7220717565727920666f72206e6f6e657860008201527f697374656e7420746f6b656e0000000000000000000000000000000000000000602082015250565b7f555550535570677261646561626c653a206d757374206e6f742062652063616c60008201527f6c6564207468726f7567682064656c656761746563616c6c0000000000000000602082015250565b7f4552433732313a20617070726f76652063616c6c6572206973206e6f74206f7760008201527f6e6572206e6f7220617070726f76656420666f7220616c6c0000000000000000602082015250565b7f4552433732313a2062616c616e636520717565727920666f7220746865207a6560008201527f726f206164647265737300000000000000000000000000000000000000000000602082015250565b7f4552433732313a206f776e657220717565727920666f72206e6f6e657869737460008201527f656e7420746f6b656e0000000000000000000000000000000000000000000000602082015250565b7f45524331393637557067726164653a20756e737570706f727465642070726f7860008201527f6961626c65555549440000000000000000000000000000000000000000000000602082015250565b7f496e697469616c697a61626c653a20636f6e747261637420697320616c72656160008201527f647920696e697469616c697a6564000000000000000000000000000000000000602082015250565b7f4552433732313a206d696e7420746f20746865207a65726f2061646472657373600082015250565b7f45524331393637557067726164653a206e657720696d706c656d656e7461746960008201527f6f6e206973206e6f742055555053000000000000000000000000000000000000602082015250565b7f4552433732313a20617070726f76656420717565727920666f72206e6f6e657860008201527f697374656e7420746f6b656e0000000000000000000000000000000000000000602082015250565b7f455243313936373a206e657720696d706c656d656e746174696f6e206973206e60008201527f6f74206120636f6e747261637400000000000000000000000000000000000000602082015250565b7f4f776e61626c653a2063616c6c6572206973206e6f7420746865206f776e6572600082015250565b7f4552433732314d657461646174613a2055524920717565727920666f72206e6f60008201527f6e6578697374656e7420746f6b656e0000000000000000000000000000000000602082015250565b7f4552433732313a20617070726f76616c20746f2063757272656e74206f776e6560008201527f7200000000000000000000000000000000000000000000000000000000000000602082015250565b7f416464726573733a2064656c65676174652063616c6c20746f206e6f6e2d636f60008201527f6e74726163740000000000000000000000000000000000000000000000000000602082015250565b7f4552433732313a207472616e736665722063616c6c6572206973206e6f74206f60008201527f776e6572206e6f7220617070726f766564000000000000000000000000000000602082015250565b7f496e697469616c697a61626c653a20636f6e7472616374206973206e6f74206960008201527f6e697469616c697a696e67000000000000000000000000000000000000000000602082015250565b613e96816134e5565b8114613ea157600080fd5b50565b613ead816134f7565b8114613eb857600080fd5b50565b613ec481613503565b8114613ecf57600080fd5b50565b613edb8161350d565b8114613ee657600080fd5b50565b613ef281613559565b8114613efd57600080fd5b5056fe416464726573733a206c6f772d6c6576656c2064656c65676174652063616c6c206661696c6564a26469706673582212205cd8f7a0fc3310e6d72627d1ea40aea22e3937f449d236364fd51526adc42d4164736f6c63430008040033",
  "linkReferences": {},
  "deployedLinkReferences": {}
}